:02000004008377
:102000000C0001099327000000010000F94C6B7ED1
:1020100011C5EB118282F74A0C0CEF5B00248300A0
:102020000024830000000000002083000000000066
:1020300000000000000000000000000000000000A0
:102040000000000000000000000000000000000090
:102050000000000000000000000000000000000080
:1020600021000000B92E129873646B2323232323CD
:102070000000000000000000000000000000000060
:102080000000000000000000000000000000000050
:102090000000000000000000000000000000000040
:1020A0000000000000000000000000000000000030
:1020B0000000000000000000000000000000000020
:1020C0000000000000000000000000000000000010
:1020D0000000000000000000000000000000000000
:1020E00000000000000000000000000000000000F0
:1020F00000000000000000000000000000000000E0
:1021000000000000000000000000000000000000CF
:1021100000000000000000000000000000000000BF
:1021200000000000000000000000000000000000AF
:10213000000000000000000000000000000000009F
:10214000000000000000000000000000000000008F
:10215000000000000000000000000000000000007F
:10216000000000000000000000000000000000006F
:10217000000000000000000000000000000000005F
:10218000000000000000000000000000000000004F
:10219000000000000000000000000000000000003F
:1021A000000000000000000000000000000000002F
:1021B000000000000000000000000000000000001F
:1021C000000000000000000000000000000000000F
:1021D000000000000000000001D1850EDCE183005A
:1021E00000000000000000000000000000000000EF
:1021F00000000000000000000000000000000000DF
:1022000000000000000000000000000000000000CE
:1022100000000000000000000000000000000000BE
:102400000048004741278300C046C04600F083F8DB
:1024100010B56E2902D10AF013FB10BD702902D14C
:102420000AF055FC10BD662902D10BF0C7FE10BDA5
:10243000652902D10BF0C2FE10BD672902D10BF055
:10244000BDFE10BD612902D10BF0C0FE10BD0368B6
:102450001B0A01D380231943692902D10AF0BAFA71
:1024600010BD642902D10AF0B5FA10BD752902D158
:102470000AF0B0FA10BD6F2902D10AF0D3FB10BDEB
:10248000782902D10AF010FC10BDE92902D10AF026
:102490006FFB10BDE42902D10AF06AFB10BDF529DB
:1024A00002D10AF065FB10BDEF2902D10AF0C6FB8C
:1024B00010BDF82902D10AF005FC10BD0368DB0944
:1024C00001D380231943632902D10BF0EAF810BD30
:1024D000732902D10BF0EDF810BDE32902D10BF006
:1024E000F7F810BDF32902D10BF0FAF810BD002067
:1024F00010BD1FB509F0FAFC0BF032F90400002002
:1025000000210BF03FFD401C6060002000210BF01B
:1025100023FDE0601FBD04488546FFF7EAFF03F096
:10252000F5FB0EF449F200000038200010B5C24A55
:10253000C249C3480DF488F1C24AC349C3480DF4E7
:1025400083F1C349C3480DF4E5F110BD10B5C24A8B
:10255000C249C3480DF478F1C24AC349C3480DF4D7
:1025600073F1C349C3480DF4D5F110BD70B50546EC
:10257000D2F718DF0446C049D6F783DA002817D00F
:10258000E800BE49001940184069002810D02846CC
:10259000D6F7A7DA04462946D6F773DA002807D01B
:1025A000A088A84203D1B4480B30854201D3002053
:1025B00070BDE0690121084370BDB149002809D010
:1025C000012809D0022809D0032802D17D20C000AB
:1025D000486070476420FBE7C820F9E7FF20F5302A
:1025E000F6E7A84A1268002A00D010477047F0B5F5
:1025F000FF2085B0C33000F4CDF44404FF20C13087
:1026000000F4C8F440000443FF20C730039400F4F2
:10261000C1F40404FF20C53000F4BCF40443FF20DF
:10262000CB3000F4B7F40704FF20C93000F4B2F453
:102630000743FF20CF3000F4ADF44504FF20CD3038
:1026400000F4A8F440000543FF20D330029500F4C5
:10265000A1F40604FF20D13000F49CF40643FF20CF
:10266000D73000F497F40504FF20D53000F492F43D
:102670000543002C04D0E0F77BDA03001DD01DE0F9
:10268000002281498148D3F70FDA814D2C68E0F7A9
:1026900063D9002211460120E0F76DD9E0F78DD90A
:1026A0007C49012009688847E0F794D97A49962047
:1026B000096888472C6005B0F0BD012372490122EA
:1026C00020317248D3F7F0D96F4901970094032263
:1026D0004C316E48039BD3F7E7D96B4900960195BF
:1026E000032278316948029BD3F7DED9E3E738B596
:1026F00072B6FFF77CFFFFF729FF002005F0FCFA18
:1027000066A11F200DF446F08D25AD0564A1284675
:10271000D3F7ABDB044669A12846D3F7A6DB034613
:1027200059495A480222A831801E0094D3F7BCD9D7
:10273000D7F5ECF463480068002800D0804738BD26
:1027400010B5D6F780D9002875D15F48007FC00743
:1027500071D0D6F778D9002805D11820DFF7F5DE3B
:102760001920DFF7F2DE5A495848086042480A301B
:10277000FFF7FCFE57490022086058495648086098
:102780005849574808602521052089020003D2F7DF
:1027900073D93B48212189048038416052498160C6
:1027A0004948F7228030417B474C11404173062154
:1027B000C173A034207E2621084320764248C030D1
:1027C000817E4908490081762D49C039886B000B0C
:1027D0004202101A454A80008218012000038242FA
:1027E00001D3086104E0232041A1000600F051F963
:1027F00035486030017D490849000175A07E1021EF
:1028000008431F216176CF210843A0761C48F021A0
:10281000803001733C214173C8218173FF21C17352
:102820000521C17000F07CF8FFF780FE3B4800688E
:10283000002800D0804710BD08150000B4F78300C1
:10284000007C200050020000BC0C84000891200095
:10285000B40D00005893200000000000D40F840045
:102860000060210000000000D40F840000602100FF
:1028700000000000006021009027000000C5FEFF5E
:1028800080042000589320000000800802031023D9
:1028900000600040200120001C01200043000000D7
:1028A000546875204A756E2032342031303A313107
:1028B0003A3333203230323100000000312E322ED4
:1028C000302E30005C932000C0022000EF268300F1
:1028D000D0112000D4112000272B8300D811200014
:1028E000E3258300141520000004100000F8FFFF0A
:1028F0004552524F52212046544C206C6F676963F9
:1029000020616464722073697A6520697320746F32
:102910006F206C61726765210000000060932000E9
:1029200038B5162000F436F369460880087806A109
:10293000440923202246000600F0ABF8032C02D104
:10294000012000F032F838BD5B62745F737461631C
:102950006B5F636F6E6669675F696E69745D207433
:10296000657374206D6F6465203D25640000000070
:10297000042800D90420404B0429187700D90421E9
:102980003E48032A017500D90322427570473B492E
:102990000278CA7542780A7682784A76C2788A7650
:1029A0000279CA76407908777047334A0223203289
:1029B0005169C0079943800F0143516170472E4B05
:1029C00010B5203B9A8B5C13C007A243C00D024395
:1029D0000720400282434807000D02439A8310BD3E
:1029E0000A2802D90520C00200E0800222492039CD
:1029F000886270472049487470471F4A203210741B
:102A00001D484030417170471B4920314874704760
:102A1000194920314882704717494031C8807047B2
:102A200015494031C873704713480E21403041703A
:102A300081707047104A203A918B002804D0012001
:102A4000C0030143918370474804400C9083704752
:102A5000094A0223203A918BC0079943800F014312
:102A600091837047044B58770348203081730248A4
:102A70004030827370470000E00220008001200097
:102A800010B50020C043D6F75AD97F49C86010BDA1
:102A900070470FB470B504467C48A0B00078002899
:102AA0003CD07B48807EC00738D1D2F7D2DE7E2171
:102AB0006A4611701071000A5071200E9071200C3E
:102AC000D071082526AB782102A8259A09F0DCF9F7
:102AD00000B2002805DB0830802801DD802500E0F9
:102AE00085B26B465D70E0F7F7DB6A4A6B4611789A
:102AF0009970491C1170E0F7FDDB6B461878597826
:102B00006E46484099784840D870002404E0305D13
:102B1000D2F77EDE641CA4B2AC42F8D320B070BC05
:102B200008BC04B0184710B50720D5F706DB584994
:102B30004031C96909F0E2F9C4B20720D5F7BCDA1F
:102B40002146D5F77FD852488022C17E1143C176F5
:102B5000FFF796FF4E48C038007FC1074E4807D0A8
:102B60004EA1FFF796FFFFF793FFFFF74DFC04E040
:102B70004DA1FFF78EFFDFF72DDFE0F722DB10BD61
:102B80000020704710B50146524B534A0020E0F731
:102B90004FD810BD4F4B504A10B541435B1DD21D5D
:102BA0000020E0F772D810BD70B50D46040028D0A3
:102BB000002D2ED0204608384068082106016807FD
:102BC000400F081A36094019301A082825D0E0F7B6
:102BD00016DB2046E0F7BAD83E4B3F4A26330E328A
:102BE00029460020E0F724D80546AC421CD02846F0
:102BF0000838406802011209964210D23246083A5B
:102C00000EE0344B344A11330E320020E0F710D876
:102C100070BDE0F79BD8002070BD204670BD083A1B
:102C2000214628460CF410F6E0F7F8DA284670BD85
:102C300010B5E0F78BD810BD2848006870472848C9
:102C4000C07B704710B5DAF7E3DA0F481030E0F7D1
:102C500035DD0D481030E0F743DD10BD1CB50446EE
:102C6000DAF7D1DA1F4A00210192074800910A469B
:102C700023461DA11030E0F7DDDC002803D0024818
:102C80001030E0F7F5DC1CBD58932000EA1120005D
:102C900080032000E811200000000023496E20532B
:102CA0006F43204D6F6465005741524E494E473A7D
:102CB00020496E20484349204D6F64652C20776978
:102CC0006C6C206E6F742072756E204150502054D1
:102CD00061736B0015050000E8E183002405200006
:102CE000E02C2000452C83005365744163746976A1
:102CF0006554696D6572000011481249EFF3058251
:102D0000114B9847FEE770474572726F7221205051
:102D10006C6561736520696D706C656D656E74209E
:102D2000796F7572204953522048616E646C6572E8
:102D300020666F7220495251202564210A0000004C
:102D400000000020082D8300075A000010B5212143
:102D5000002209065E4800F0FBFC10BD10B50379A7
:102D60005C49012B02684B682FD093434B6042793A
:102D7000012A29D100224A63564B82794033002A26
:102D80002FD0012A36D09A6A046822439A62C27907
:102D9000002A35D0CC6B026894431443CC63017A8B
:102DA000002932D09A6801688A430A439A60072250
:102DB000494992024A604A68C068484B5843400BF0
:102DC000401EC0B202434A6010BD13434B60427ABA
:102DD000002A8A68006802D002438A6010BD8243DC
:102DE000FBE78A6B0468A2438A631A6A0468224379
:102DF0001A62CCE78C6B0268944314438C63C6E779
:102E0000CA6B0468A243CA63C9E799680068814332
:102E1000996010BD0021C943016000210171417119
:102E20008171C171017241721421C1607047294AD8
:102E30000029116B01D0014300E081431163704709
:102E400024494031C8607047224A0029516B01D0A3
:102E5000014300E081435163704701211E2802D8DD
:102E6000814008467047202805D00246213A022AB0
:102E700004D8021F07E00120400370470246243AAD
:102E8000022A03D80A32084690407047FF20704754
:102E90001E2808D9202805D001462139022903D847
:102EA000001F06E00D20704701462439022902D890
:102EB0001A38C0B27047FF20704707498A140028AB
:102EC000486801D0104300E090434860704700001C
:102ED0000001000C0010004040030040204E0000A4
:102EE00030B5826852005208826082691F231A43FB
:102EF000826102685E4B1A40026003680A46203213
:102F0000947B23438C8D240223430360CC698B6A1A
:102F10000D6A23438C6B2C432343836083680C8EA0
:102F20006401234383608368147DE4052343836045
:102F30004C69CB6823430C69234343604368D47CCA
:102F4000927C23434C8992046402224313434360DE
:102F50004A8801231C4694402402521EFF3C013C37
:102F60001443C46009884A1E12048B405B1E1A4336
:102F70000261C169FF221143C161816949094901A7
:102F8000816130BD10B500223A493B4800F0E0FBBA
:102F900010BD30B50221418001804C070B07FF2195
:102FA0008462F931C36181850122014620318A732F
:102FB000028615070562D507C560046143611023C9
:102FC00043818B74CA7403220A750021816330BD6A
:102FD000012A826802D08A43826070470A43FBE775
:102FE000012A826902D08A43826170470A43FBE763
:102FF00010B5002304E044695B1C0C809BB2891C63
:103000009342F8D310BD002981680FD0490007D43E
:103010008168090504D48168012292051143816009
:1030200081680122D2071143816070474900490835
:10303000FAE710B50123C9055B05C90A012A0F4C3F
:10304000826808D09A4382608268224082608268E7
:103050000A43826010BD9A43826082682240826087
:1030600082680A43826081681943816010BD000054
:10307000E000FCFF4000006000000808FF0FE0FFD8
:1030800070B59B4D01242A78002A05D1A207536907
:103090005615334353612C70964A11639649401874
:1030A0005063946370BD30B5924CC03C20684108B9
:1030B00049002046FFF7E4FF2168A0058143204630
:1030C000FFF7DEFF2168600581432046FFF7D8FF48
:1030D000251D8A492846FFF7D3FF00BF00BF002106
:1030E0002846FFF7CDFF83480021B438FFF7C8FF1B
:1030F00080480021B038FFF7C3FF7E480021AC387C
:10310000FFF7BEFF7B480021A838FFF7B9FF7948D9
:103110000021A438FFF7B4FF76480021A038FFF75C
:10312000AFFF744800219C38FFF7AAFF71480021C7
:103130009838FFF7A5FF6F4800219438FFF7A0FFEC
:103140006C4800218838FFF79BFF06212046FFF7D7
:1031500097FF00BF00BF00212046FFF791FF30BD61
:1031600001056448090DB4388AE701466148C03852
:103170000129016802D04908490081E70122114371
:10318000FBE75C4AC03A0129116802D0814310462E
:1031900076E70143FBE7574AC03A0129116802D09C
:1031A000814310466CE70143FBE701005448554A50
:1031B000016801D0114300E0914361E701465048A6
:1031C00042050129016801D0914359E71143FCE709
:1031D00030B54B4C2168022529432046FFF750FFAC
:1031E00000BF00BF21682046A943FFF749FF30BD5B
:1031F00030B5434C2168042529432046FFF740FFA2
:1032000000BF00BF21682046A943FFF739FF30BD4A
:103210003B4A014692680020090A0A4200D0012078
:10322000704710B5364C010A241D2046FFF728FFD1
:1032300000BF00BF00212046FFF722FF10BD304A2B
:10324000014692680020090A0A4200D00120704716
:1032500010B52B4C010A241D2046FFF711FF00BFBB
:1032600000BF00212046FFF70BFF10BD10B5012164
:103270000830234C8140241D2046FFF701FF00BF8A
:1032800000BF00212046FFF7FBFE10BD10B51C4C0F
:103290000221241D2046FFF7F3FE00BF00BF0021DE
:1032A0002046FFF7EDFE10BD10B5154C0121241D81
:1032B0002046FFF7E5FE00BF00BF00212046FFF7D4
:1032C000DFFE10BD10B50321044689020A46262000
:1032D000FFF705DF03210902002C05D0012252026D
:1032E0002620FFF7FCDE10BDFF220132F8E70000C8
:1032F0009C942000C001004000FFFFBFFFFF0000C2
:1033000000010040000000400020DA49024683002E
:103310005B181A60401CC0B20A28F8D370478108B5
:103320008A00D44951180A688007C30EFF209840CC
:1033300082430A607047820893008007CD4A10B527
:10334000C00E9A181368FF248440A34381400B43A6
:10335000136010BDF8B50F46C74940000D5C1C4610
:1033600016462846FFF716DE00090001002C02D0A1
:10337000012C02D003E0042100E00C21084306994F
:103380004C0007990C43044301204002002F01D058
:10339000044300E08443FF27214601373943284690
:1033A000FFF74ADE002E04D12146B9432846FFF735
:1033B00043DEF8BD70B50D46AF4940000C5C2046B9
:1033C000FFF7E8DD2022002D01D0104300E09043FC
:1033D00001462046FFF730DE70BD70B50D46A649A8
:1033E00040000C5C2046FFF7D5DD01229202002D43
:1033F00001D0104300E0904301462046FFF71CDE59
:1034000070BD70B50D469C4940000C5C2046FFF72E
:10341000C1DD4022002D01D0104300E09043014661
:103420002046FFF709DE70BD10B500242A20FFF703
:10343000B1DD010400D501240121C90301432A2083
:10344000FFF7FADD204610BDEEE70021B2E7F8B540
:103450001C4615460E460746012A0ED0FFF7E4FF2C
:1034600031463846FFF7CDFF29463846FFF7B5FF0E
:1034700001213846FFF79EFFF8BDFFF7E6FF402C1D
:1034800000D33F242A20FFF785DD3F21090288432E
:10349000A106890C01430320800301432A20FFF782
:1034A000CBDDDDE770B54100734800244E30405A53
:1034B0000105090D020B0120904085B20846FFF777
:1034C00069DD284200D00124204670BDEAE770B5CE
:1034D0000D46694940000C5C2046FFF75BDD002D7E
:1034E00002D00121014301E0410849002046FFF7D5
:1034F000A3DD70BD70B50D465F4940000C5C2046F1
:10350000FFF748DD0222002D01D0104300E0904378
:1035100001462046FFF790DD70BD70B50D46564957
:1035200040000C5C2046FFF735DD0422002D01D061
:10353000104300E0904301462046FFF77DDD70BD5B
:1035400070B50D464C4940000C5C2046FFF722DD6B
:103550000822002D01D0104300E090430146204690
:10356000FFF76ADD70BD70B50D46434940000C5C45
:103570002046FFF70FDD1022002D01D0104300E0A0
:10358000904301462046FFF757DD70BD70B50D46EC
:10359000394940000C5C2046FFF7FCDCFF22013279
:1035A000002D01D0104300E0904301462046FFF774
:1035B00043DD70BD70B50D462F4940000C5C2046C0
:1035C000FFF7E8DC01225202002D01D0104300E099
:1035D000904301462046FFF72FDD70BD70B54100D6
:1035E00025484E30405A0405240D010B0120884027
:1035F00085B22046FFF7CEDC284301462046FFF780
:103600001BDD70BD10B59A20FFF7C4DC1B490143D8
:103610009A20FFF711DDAE20FFF7BCDC7F210143CC
:10362000AE20FFF709DDD220FFF7B4DC14490143D7
:10363000D220FFF701DDF420FFF7ACDC1149014394
:10364000F420FFF7F9DC10BD01220A491206002818
:10365000886A01D0104300E09043886270470549B2
:103660008A150028886A01D0104300E090438862E0
:103670007047000080020040E8E28300FF1B00006A
:10368000FF010000FF03000070B5047A00212B4AFF
:10369000132341560125002C3BD0322906DBD46888
:1036A0002E4632398E403443D46003700178CA0606
:1036B000D20E29469140224A116000214156FF2630
:1036C0004268002911DA0B071B0F083B9C081D4BB1
:1036D000A400E318DC698907C90E8E405207120E58
:1036E000B4438A401443DC610DE08C08164BA400FF
:1036F000E3181C688907C90E8E405207120EB443A6
:103700008A4014431C600078C006C00E85400F48F4
:1037100012E00E48803032290BDBD36832398D40FD
:10372000AB43D360D168002902D10121C9040160F3
:1037300070BDC906C90E8D40056070BD00600040B7
:1037400080E200E000ED00E000E400E000E100E0E5
:10375000F0B594464B0002019D0F0446920F664659
:103760000C43B34B012E0AD00E46FF3E213E5DD0E6
:103770000E46FF3E413E59D0102957D03EE0AD4F96
:103780003E05B94205D1DF683743DF60DE68CF050B
:1037900010E061273F06B94202D0A74FB9420CD1D1
:1037A000DF683743DF60DE680127BF053E43DE6028
:1037B000DE68BF013E43DE6016E09E4F303FB942F7
:1037C00002D09E4FB94206D1DF683743DF60DE6822
:1037D0000127FF06EEE79A4EB14205D1994E366AAF
:1037E0000F153E43974F3E620E46FF3E213E1AD0D4
:1037F0000E46FF3E413E16D0102914D00324A406E5
:10380000A043E400A1436446012C13D09200D218D7
:1038100014698443A800C0181461C26A8A4349002D
:103820008A43C262F0BD186A204301E0186AA043CF
:103830001862F0BD9200D21814690443A800C018A1
:103840001461C26A0A4349000A43EAE7020110B55B
:10385000920F774B012906D0022818D0042816D0E1
:10386000012814D005E002280ED004280CD001282D
:103870000AD00324A406A04301290CD09100C91842
:103880000A6982430A6110BD196A014301E0196A9D
:103890008143196210BD9100C9180A690243F1E71A
:1038A00030B54200FF25FF24920F41352134604B93
:1038B000012906D0A0421AD0A84218D0102816D04C
:1038C00005E0A04210D0A8420ED010280CD003244E
:1038D0006407A04301290ED09100C918CA6A824327
:1038E00040008243CA6230BD196A014301E0196A8F
:1038F0008143196230BD9100C918CA6A0243400071
:103900000243EFE730B5504C494B4E4AA04211D12B
:10391000986B400840009863D0690324E403A043F7
:10392000D061D069C9030843D061986B0121084375
:10393000986330BD454CA042FBD19C6B042084436E
:103940009C63D46903256D04AC43D461D4694904F4
:103950000C43D461996B0143996330BD30B53C4C45
:10396000334B384AA0420BD15C6B901384435C63A9
:10397000D4690325ED04AC43D461D469C9040EE0D5
:10398000344CA04210D15C6B0120800484435C6302
:10399000D46903256D05AC43D461D46949050C4352
:1039A000D461596B0143596330BD70B5204A136B24
:1039B0001514AB431363234B1C6A4600801907267A
:1039C000C01D8640B4431C621C6A81400C431C62CB
:1039D000106B2843106370BD30B51F4C144B194A4F
:1039E000A04211D1586B400840005863D0690324AD
:1039F0006402A043D061D06949020843D061586B8A
:103A000001210843586330BD144CA042FBD11C6B0C
:103A1000801484431C63D4690325ED02AC43D46154
:103A2000D469C9020C43D461196B0143196330BDD9
:103A300000020040400000600010004000000160F3
:103A4000004000204003004000500140005401406D
:103A500000300140003401400020014000100140CE
:103A600010B50120002260490004FFF771FE10BD6F
:103A700070B505465D480C461421281808F03EFA3A
:103A80005B490A6A4B151A430A620A6A520503D552
:103A90000A6A0B159A430A620723022803D20E6AA8
:103AA0004200821806E0821E042A0BD20E6A4200EF
:103AB0008218D21D93409E430E62A38893400A6AE7
:103AC00013430B62032801D005280BD12422135D78
:103AD0000122012BCB691CD0461E7608761EB2400F
:103AE0009343CB616289002A228918D052000C23AB
:103AF0001A43AA603F4A83009A18236913606269D7
:103B00002A60A38D61221203012B0ED0022817D048
:103B100019E0461E7608761EB2401343E1E75200D4
:103B200004231A43AA60E268EAE702280BD1238E35
:103B3000A06A5B021843E38D9B021343184301E024
:103B4000486A90434862E86870BD012303812A49AE
:103B5000C16000218180242211544181C1850386E6
:103B6000818570470029816802D00122114301E05C
:103B700049084900816070470160704704220029AC
:103B8000816801D0914300E011438160704770B5B6
:103B9000044616480E4615461421201808F0AEF9C2
:103BA0002560144980004018066070BDFF22013274
:103BB0000029016801D0114300E091430160704782
:103BC000012252030029016801D0114300E0914312
:103BD00001607047012212040029016801D01143DD
:103BE00000E09143016070470040002000E0FFBF0B
:103BF00040030040B0200040FF0F00008D4910B589
:103C0000884203D100228C498C4805E08C498842C7
:103C100004D100228B498014FFF79AFD10BD10B526
:103C2000C36880229343C360002343604369836871
:103C3000062423438360C3681343C360036AF024EC
:103C4000A3430362036A8C88240123430362C3698C
:103C50007D4C2340C361C3690C8824042343C361A2
:103C60008B7803604B881B0A4360C3689343C3602F
:103C70004A890B891A43CB881A43C2608A89CB8947
:103C800012041B02521C1A438B8A1A438260026977
:103C900022239A43026102694B8A1A4302610A8A0B
:103CA00002648A8A082A1CD1CA8A002A0AD0826A37
:103CB000F8239A438262826A8B7E0224DB002343CC
:103CC0001A4382620A8B002A0BD0826A3F231B02AE
:103CD0009A438262826AC97E0423090219430A4315
:103CE000826210BD142141800C21818057490180DE
:103CF0000122C28000210181418110238381C3817F
:103D0000028241828182C18201830F218176C27643
:103D10007047002A026D01D00A4300E08A43026521
:103D2000704710B50B0609D5012A17D0036C5B004C
:103D30005B080364836C5B085B0083644B0605D5FA
:103D40008023C469012A16D09C43C4618B0604D029
:103D5000012A426811D08A43426010BD446C01239D
:103D60001C434464846C1C438464036C0124E40796
:103D700023430364E2E71C43E7E70A43ECE702E07E
:103D80000B784362491C1346521E92B2002BF7D1A6
:103D9000704702E0436A0B70491C1346521E92B2F0
:103DA000002BF7D1704770B5C56880242543C560E6
:103DB000056AF026B5430562056A120115430562DE
:103DC000C269214D2A40C261C2691B041A43C26103
:103DD000CAB20260090A4160C168A143C16070BDF6
:103DE00019431143C160704710220129016902D0B3
:103DF0009143016170471143FBE702460123002014
:103E0000DB02994203D1916D06E001207047012346
:103E10009B02994203D1516DC907F6D17047CB1F60
:103E2000FF3BFA3B03D052690A42EED17047516C16
:103E3000F2E70000002001400100004001000008FE
:103E40000010014000100020FFFF00F852020000A7
:103E500010B5612100220906BE48FFF779FC10BDAC
:103E600070B5FF26044617360D463046FFF792D848
:103E70000121890201433046FFF7DED83046FFF7C3
:103E800089D8302101433046FFF7D6D8E068400991
:103E90004001E060696DA86D0843E96D4907C90DEF
:103EA00008432065686D002807D1206D296EAA6E31
:103EB0000843696E1143084320650121286D0906F6
:103EC00088420ED1E96C0843216D08432065A06843
:103ED000000C0004A060A88B2061A06801210843A9
:103EE00014E0A068000C0004A060002082005119BA
:103EF0000B7F897FDB06C906DB0EC90A0B4311194C
:103F00000B61401CC0B20828F0D3A88FA06069697B
:103F1000A8682A7C0843297B920689068909120B26
:103F200011430843A96908436060296C686C084321
:103F3000A96C0905090908436065A06D0321890280
:103F40000843A06528888004800C132801D2132020
:103F50002860298868688904890C0843E0656068DE
:103F60000121890608436060E0681F2109020843B7
:103F7000E06070BDFF210160002141600A22C26043
:103F80000122816053034361026181618183C183A6
:103F9000018441848184C184018541858185C185F5
:103FA000018641868186C1860187418781870164B8
:103FB000416481640165C164416581650166416652
:103FC000C2658166704770B5FF2514350E460446FC
:103FD000012A0DD060688008800060602846FEF7E6
:103FE000D9DFC1B2042001432846FFF725D870BDB0
:103FF0002846FEF7CFDFC1B2FB2001402846FFF77D
:104000001BD8206D00031ED5206D0F2189020843A7
:104010002065514D502029688847206D0321890370
:1040200008432065FF20296841308847206D03211F
:104030000904084320652968F0208847206D012184
:1040400089040843206560688008800060606068BB
:104050003043606070BD002AC26801D00A4300E0AE
:104060008A43C2607047CA07490889000818006B74
:10407000002A01D0000C704780B27047006B80B2FC
:10408000704700680005000D704702E003680B8070
:10409000891C1346521E92B2002BF7D170478068DC
:1040A0008002800E7047D3075208920012181069E0
:1040B000002B00D00904084310617047CB07490862
:1040C000890009180869002B00D012041043086108
:1040D0007047012A826802D08A43826070470A438F
:1040E000FBE70122D2040029016D01D0114300E059
:1040F000914301657047012252050029016D02D0EC
:104100009143016570471143FBE770B5032812D84E
:10411000FF251935012484400029284604D0FEF7E4
:1041200039DF0443A1B203E0FEF734DFA0430146C8
:104130002846FEF781DF70BD0246D26800200904E0
:104140000A4200D001207047C26809020A43C260D7
:10415000704700000100000C1C01200070B58C4D60
:1041600001242A78002A05D1A20753695615334342
:1041700053612C70874A11638749401850639463D8
:1041800070BD10B5FF2415342046FEF703DF41084B
:1041900049002046FEF750DF7E4C403C216802205B
:1041A00081432046FFF7DAFF2168A01281432046B1
:1041B000FFF7D4FF2168E01281432046FFF7CEFFCE
:1041C0002168601581432046FFF7C8FF2168A015CC
:1041D00081432046FFF7C2FF6E4800213838FFF7C1
:1041E000BDFF2168012001432046FFF7B7FF00BF54
:1041F00000BF2068410849002046FFF7AFFF10BD0F
:1042000070B504465220FEF7C5DE217A8009890682
:104210008001890E01435220FEF70EDFFF25153580
:104220002846FEF7B7DE2288800980015200A18867
:104230000243114389B22846FEF7FEDE554C403C4E
:104240002168042529432046FFF788FF00BF00BFEF
:1042500021682046A943FFF781FF70BD002101803E
:10426000416029218160704710B5FF241534002872
:10427000204604D0FEF78EDE0121014303E0FEF765
:1042800089DE410849002046FEF7D6DE10BD014612
:104290004048022240380029016801D0114300E063
:1042A00091435BE73B4A403A0029116801D0014342
:1042B00000E08143104651E701003848384A016860
:1042C00001D0114300E0914348E701003348354AEB
:1042D000016801D0114300E091433FE701052F48F9
:1042E000090D08303AE710B52C4C21680120014334
:1042F0002046FFF733FF00BF00BF20684108490098
:104300002046FFF72BFF10BD0146264B0020234A15
:10431000994204D15168890700D501207047CB1F0D
:10432000F93BFBD15168C907F7D1704730B5C11FC0
:10433000F9390DD1194C2168042529432046FFF78E
:104340000DFF00BF00BF21682046A943FFF706FF0D
:1043500030BD01460020CA1FF93A04D10F4949680F
:10436000C90700D00120704730B5C11FF9390DD100
:104370000A4C2168042529432046FFF7EFFE00BFC1
:1043800000BF21682046A943FFF7E8FE30BD0000CA
:104390009D942000C001004000FFFFBF800100404D
:1043A000000200000000080070B515460124924A82
:1043B000030009F0A5FD090D16222B343D464D578B
:1043C0000600002422468D498D48D1F76DDB12E0AE
:1043D000142900D91421117087480A4629460C3047
:1043E00007E0142900D91421517083480A46294650
:1043F00020300BF429F2204670BD142900D9142175
:1044000091707D480A4629463430F2E7142900D9D4
:104410001421D17078480A4629464830E9E7142922
:1044200000D91421117174480A4629465C30E0E72E
:10443000142900D9142151716F480A462946703059
:10444000D7E7082900D908210A4629466D48D0E750
:104450001E2900D91E216B480A46083801702946DA
:104460001030C6E7072900D9072166480A462946C1
:10447000C01FBEE7FFB583B00C9C00260D9D2680B3
:1044800002216A461171507105980827801E5A4A08
:10449000030009F035FD111E0A840A2B0A520A4551
:1044A0000A5F0A130A6C0A780A00544901222C3167
:1044B0005348059BD1F7F8DA534E24E007206946AC
:1044C0008871926801A9049890474E482860278017
:1044D00019E00120694688711746926801A904987D
:1044E000904745480C30286038780BE00320694637
:1044F00088711746926801A9049890473E48343065
:104500002860B8782080208800903C493C480222EE
:104510005431801C059BD1F7C7DA304607B0F0BD97
:104520000520694688711746926801A9049890474A
:1045300031485C3028603879E4E7042069468871A6
:104540001746926801A9049890472B484830286084
:10455000F878D7E70620694688711746926801A95E
:10456000049890472448703028607879CAE76846F4
:104570008771926801A90498904722480830286002
:1045800010380078BEE7092069468871926801A951
:10459000049890471B48C01F28600720B2E7684670
:1045A00081711746926801A90498904712482030FB
:1045B00028607878A6E73EB5144904468869C96939
:1045C000009001911148852243699200104902A888
:1045D00005F086FF00280AD169460B7A07490122B7
:1045E0008C310748D1F760DAFF206946087202482B
:1045F00084606846007A3EBDA09420004001800897
:1046000000331023109120000A04000084E5830089
:1046100084E3830010B50124012807D00346002459
:10462000012251495148D1F73FDA06E0012901D072
:10463000002402E04E4910780870204610BD07B5EE
:1046400082B0002301220193009204AB022205F004
:10465000ACFF05B000BD07B5454B82B05A78002AC3
:1046600009D000225A7001230093019204AB022268
:1046700005F069FFEDE70020EBE7FFB581B00546E7
:104680000A9E00200B9F308000933749374814461C
:10469000134602223031801CD1F706DA022C08D0F2
:1046A0003149002260313148D1F7FED9314805B097
:1046B000F0BD0220694648700D7001242C4D8C70AD
:1046C0006A68029890472C49884200D16C703D601E
:1046D0003480ECE7FFB583B0012669464E7108715E
:1046E0001D460093204921481746134634460222AE
:1046F0008C31801CD1F7D8D9032F0BD000241C4853
:104700004268002A04D0002C02D001A904989047E6
:1047100007B0F0BDE80702D068468671EFE70220D7
:1047200069468871EBE73EB514490446486F896FC6
:104730000090124801910146036F702202A805F013
:10474000CFFE00280AD169460B7A07490122BC3105
:104750000648D1F7A9D9FF20694608720448446089
:104760006846007A3EBD0000F00180080033102347
:10477000249520000A040000010D0000A4E5830038
:1047800010B501241346012809D08E4A02280AD008
:1047900003280BD0042810D00024204610BD8A49DD
:1047A00010780870F9E718781070F6E786480A461E
:1047B0001946001D0BF448F0EFE751809360ECE7D9
:1047C000FFB585B00E9C00260F9D268000931746EE
:1047D000134602227D497E48D1F766D902216846F8
:1047E00001713A4604277748082A49D006DC022A94
:1047F0001ED0042A28D0062A04D132E00A2A03D087
:104800000E2A01D0734E38E069460F72426807469F
:10481000002A02D001A906989047B96829607888D3
:104820002080002801D0002927D16A4EB93624E023
:1048300003216A4611724268002A02D001A9069833
:1048400090476148001D16E06A46117242680746AB
:10485000002A02D001A90698904701202F602080ED
:104860000BE0012769460F724268002A02D001A9B5
:1048700006989047544828602780304609B0F0BD1C
:10488000554828603720EAE7F0B585B00E460B9B07
:1048900000240A99002B0CD003275048494D042AC4
:1048A00021D0062A11D00A2A2BD00E2A29D0494C11
:1048B0002DE000914549464802223431801ED1F74F
:1048C000F3D84448801F05B0F0BD3F4A19781170F5
:1048D0006A461771022717721B7813730B463B4900
:1048E000012264310AE0197829706A46177117723B
:1048F0001B7813730B46354901229031D1F7D4D878
:1049000005E06846077105220272017304936A6824
:10491000002A04D0002C02D101A93046904720463D
:10492000D1E7FFB585B00127684607711C460093A3
:104930002649164613463D460222B8312448D1F78F
:10494000B3D80B2E0CD00F2E11D000251D48426875
:10495000002A93D0002D91D001A9069890478DE7A9
:10496000E00702D068460772F0E7022004E0E007A3
:1049700001D0052000E0062069460872E6E73EB552
:10498000174904468869C969009001911448124981
:1049900043690D483831428802A805F0A1FD00287E
:1049A0000BD169460B7A09490C480122E831801E77
:1049B000D1F77AD8FF2069460872024844606846F9
:1049C000007A3EBD2C95200036912000D002800850
:1049D000023310230A04000020E683000230102373
:1049E00020E88300FFB585B0174601241346002553
:1049F00022463B493B480F9ED1F756D80321022F50
:104A00000FD0052F1CD0384D002438480268002AEA
:104A100004D0002C02D0694606989047284609B079
:104A2000F0BD0E98102807D1002E05D06A461170EF
:104A300001201071102008E02B4D0024B935E4E767
:104A40006A461170022010710E9810720396DCE70E
:104A5000FFB585B00124684604711E4600932049C5
:104A6000174613462546022234311E48D1F71CD87A
:104A7000032F0AD000241D480268002ACFD0002C42
:104A8000CDD001A906989047C9E7F00703D0684642
:104A900005710572EFE769460D7102200872EAE7B9
:104AA0003EB513490446C86A096B0090104801914D
:104AB0000146836AA822803902A805F011FD00286A
:104AC00004D00A4804606846007A3EBD684604493E
:104AD000037A01226C310348D0F7E6DFFF203EBDA8
:104AE000DC038008023010230A04000048952000EF
:104AF000D0E88300F0B50E460025FF4985B00327B6
:104B0000FE4C0A9B0B982468022A0FD0102A15D05D
:104B10000C2A29D0009313460222F949F948D0F70C
:104B2000C3DFF54DED1E284605B0F0BD012B2BD19E
:104B3000002829D06A46177101211CE0052B23D1DA
:104B4000002821D06A4617710221917101781172F3
:104B500082784178120289186A465181C1780079B9
:104B600000020818908109E0012B0DD100280BD01C
:104B70006A4617710221917100781072002CD2D010
:104B800001A93046A047CEE70D46CCE7F8B504466C
:104B9000D3F7F3DF0021217000280BD00220D3F7D8
:104BA0008BDA0546D0F7FEDBA84201D1012602E0F0
:104BB000022600E00326D44D01272846D3F7BFDFA5
:104BC000002812D02078D049401C494220706A1831
:104BD00060883946914008436080CC4869000918D4
:104BE00030468840616808436060C7486D1CADB2BC
:104BF0000B308542E1D3F8BDFFB589B00020139D8D
:104C0000129C064607900E2A5ED008DC042A1BD0B0
:104C1000062A33D0082A43D00A2A0AD133E1122ABD
:104C20007ED0B648002114300078142A79D0162A94
:104C300078D0B349134601224431B248D0F734DF6B
:104C4000AD48C01E07901EE1AC4901200C31400266
:104C500005F06BFBA94F00200C37694605231A1A93
:104C6000BA5C0A54401C0628F9DBA44806220C3022
:104C7000CBF71ADB06202F60208004E1A248801CBD
:104C8000D3F72FDF03469D49006E48609C49009092
:104C9000022278319B48D0F707DF9848001D10E0CA
:104CA0009948C01CD3F71DDF03469449006E886005
:104CB000934900900222AC319248D0F7F5DE8F483C
:104CC000083028600420D7E78F48D3F70ADF8B4FDE
:104CD0000C2348373B70012179704078B8700091FF
:104CE000874901900322E0318648D0F7DDDEF8786D
:104CF00001210843FD221040C902854AB98012787B
:104D00005207D20F5200104304221043F87042079A
:104D10008307D20FDB0F019302920091C30702E0D9
:104D200042E08DE0BBE0DB0F04227A497548D0F702
:104D3000BBDEF878F7210840F870D3F71EDF0028B3
:104D4000F8782CD010210843F8700220D3F7B4D99A
:104D50000090D0F727DB0099884201D1032000E0C2
:104D60000220D3F7EAD9000BB87164481430FFF77A
:104D70000DFF624814304068B860F978BA79CB0604
:104D800002900807DB0F009362490192C30F0422CF
:104D90004C315C48D0F788DE0C202F606CE7EF21A7
:104DA0000840F8700420DCE7544E002714363078B1
:104DB000002802D13046FFF7E9FE504802221430A5
:104DC0000178009153494388AC314E48D0F76CDEEE
:104DD0004D4E4A48143041884B4840423218012019
:104DE0009040014212D008A93046D3F742DFBA0002
:104DF000424908981C31885046497F1C0090FFB2F8
:104E000033460222EC313F48D0F74EDE3E48761C56
:104E1000B6B20B308642DCD338481C300146083924
:104E200028600978052901D9142100E08900218032
:104E3000011D1EC96D461EC505223749036819E0CC
:104E40002E4A143205283FD910461C3028601078AD
:104E50000A2801D9142001E0800014382080274856
:104E60006D461C30014618311EC91EC52A4905224F
:104E7000436934312348D0F717DE022069460874AD
:104E80000620887401261D480268002A04D0002EDE
:104E900002D004A90A98904707980DB0F0BD174AB0
:104EA00014320A2810D910463030286010781A4978
:104EB00080002838208010460830836A012268313B
:104EC0001048D0F7F1DDD8E729602180D5E73EB55D
:104ED00004461248C268816801920091A122436889
:104EE00092000F4902A805F0FBFA00281AD00348E7
:104EF00004606846007A3EBD0D0400004C95200019
:104F0000D80680080231102390270000E4B0FFFF8C
:104F100000052000100880082009800894EB830019
:104F200014E983006846037A012203490348D0F755
:104F3000BBDDFF20DFE70000A4098008003110235B
:104F4000F7B588B0002094460390049010206A467C
:104F500010730A20507308981075032050750420B0
:104F60004302012450760725FE4E3746143F7069F0
:104F700099420DD9009301900B460322FA49FB4850
:104F8000D0F792DD0020B88002206A469073F3E0EB
:104F9000F44A143A93888B4203D0F768C218BA4295
:104FA00070D1F048624614381946006903F049F898
:104FB00000281BD0EC4901225431EC487369D0F72A
:104FC00073DDE84900201439888005206B4698730A
:104FD0007069D873020A1A74020C5A74000E98741D
:104FE0000095019403AB04228978B1E0E048007891
:104FF000400706D5DB48143801698288084602F06C
:10500000ABFFD84A002710460097143801780C26C9
:105010007143064634368919536989689688591848
:1050200082880369304603F085F803002BD0CE490F
:105030000122EC31CD48D0F737DDCA4E3146143964
:10504000B088896803F041F8002849D038463746CF
:10505000143FB880BB680122C649C4487361D0F7C9
:1050600023DD0820694688737069C873020A0A74D0
:10507000020C4A74000E88740095019403AB04225C
:10508000B97865E081E0B74E6946143EB088029079
:10509000032008760420488302A80790F268002ABB
:1050A00004D005A9B0789047002854D1AD48B28803
:1050B00041698B184361B06801211A1A09038A42B9
:1050C00001D34018B060B7800090A749A748A54F0A
:1050D00002229431801CD0F7E7DC6A4694732AE000
:1050E000A048716914388068091A012000038142C0
:1050F00033D9A0499D4800224831801CD0F7D4DC28
:105100009849984814398A68012109038088511800
:1051100002F0DBFF002820D0924E9649143EB78063
:10512000904FB3680122803190487B61D0F7BCDC9E
:1051300008206A4690737869D073010A1174010CD3
:105140005174000E907400950194B17803AB042261
:10515000089805F02AFA0BB0F0BD3846814F854912
:10516000143FB8808148BB680122C831801C73613C
:10517000D0F79ADC6A4695737069D073010A11748E
:10518000010C5174000E907476E7764E00930190F6
:105190000B46143E0297042277497448D0F784DC0A
:1051A0000020B08006206A4690736E484069C3E7CD
:1051B0003EB56C4B0446987E01281CD100229A769D
:1051C000029210206A4610720720507291720B46AC
:1051D0006949664801227031801CD0F765DC0320E4
:1051E00000906048012101911438817802AB0422BB
:1051F000204605F0DAF93EBDF1B584B000200290FA
:10520000D3F7BBDC5D4E050003D0564800218088F3
:1052100007E03078534A0C214843203281188968CE
:10522000105A03F08DF8514F534904460346BF1CF2
:105230000122A8313846D0F737DC20460124002867
:105240000ED0002D09D130784B49401CC3B23370C9
:105250000122F0313846D0F727DC6846847202E03C
:10526000052069468872102069460872032048723A
:105270000090019402AB0422B178049805F095F9EE
:1052800005B0F0BDF8B5D3F778DC00281FD135485C
:105290003B498088884206D10520D2F70DDF0121E5
:1052A0000906084301E0D3F775DC2E4E00240546BD
:1052B0002036324F08E00C20604380198068401986
:1052C00003F034F8641CE4B238788442F3D3F8BDB8
:1052D000F7B590B0002005900690079008A91098A7
:1052E0000870032048700420487113780B731198DC
:1052F00000901E481546541C1E4601930222214967
:10530000C01CD0F7D1DB33461C4E01270D2B0CD22D
:105310000198002809D0030008F0F2FD0CFC0EFBF8
:10532000FAF9F8F7F6FCF5F4F3FC10206946087575
:1053300001984875FF2022E1119811287ED10C4870
:105340000078400732D5224610210F48D0F7DBDD28
:10535000064D0C490346AD1C012240312846D0F7CA
:10536000A3DB13E0B4952000CC09800800311023A2
:1053700000052000F40A8008F40B8008A0952000A6
:10538000FEFF0000100D800800005023214610226F
:10539000084602F0E1FD22461021F948D0F7B3DDBE
:1053A00003460122F7492846D0F77EDB237808A878
:1053B0000374621C0F9364784474917850780902E6
:1053C000401881B2684641860B911179D078090264
:1053D000401885B269468D86917950790902401846
:1053E00080B26946C8860C90117AD07909024018BB
:1053F000517A927A09041206891842180C9903917D
:105400000E920B98DF4904920190029500940622B7
:105410002431DD48D0F748DBDC4C0F9B23700B991F
:105420006180A5800C98E0800E9801218902A0601F
:105430004018E0600C2B04D0012200E0A9E0D44920
:1054400094E0D44828180B2802D3D34885427DD154
:10545000D3F793DB002812D130780C220146504359
:10546000CA4AA388203213528518E3686B6000296A
:1054700051D028468038C16F806F0818A8603078F6
:10548000C24D03460C214843203541198A684968BA
:10549000285A0191BB49029200900422A031BA48D7
:1054A000D0F702DB022008A908710C206946C884E5
:1054B0000A94F268002A04D008A9B078904700281E
:1054C00067D1009730780C21484340198168A08843
:1054D000AE4B0C2202F02EFE02001FD02320AFA103
:1054E0000006FDF7D6FA002069460870052008A9D5
:1054F00008716946CF840A91F268002A75D008A91C
:10550000EAE0F3E1DAE1B6E128E1EDE0C4E0A4E0AD
:105510006FE040E009E200209060B0E760699C49DC
:105520000C306061002258399748D0F7BDDA0C2062
:105530000290032408A90C7104206946C88402A8BB
:105540000A90F268002A06D008A900E00AE0B078C4
:10555000904700281DD11020694608754F758F753A
:1055600000940FE08A4901222B4630398648801E7C
:10557000D0F79ADA1020694608754F7502208875B1
:1055800003200090019705AB0422B178109805F034
:105590000CF813B0F0BD1198072804D07C49012203
:1055A00003469031A7E061782078090240187749D6
:1055B00083B28B80E278A078120280182279647915
:1055C0001204240612198018486101D00C2802D157
:1055D0000021B180B160B18801916D490090032232
:1055E00030316948D0F760DAD3E779E0D0F75CDA98
:1055F000CFE71198032803D00346012272497AE0CD
:1056000061782078090240185F4D83B25F4C6E4983
:105610006D1CA380012264392846D0F745DA6B4817
:10562000807EC006B5D50121E06809058842B0D961
:10563000491E40180001000E4101491E8CB262490A
:1056400083000222403928460094D0F72DDA032245
:105650000F212046DDF78FD99BE7FFF713FE5A494C
:1056600000222C314848D0F71FDA042008A908711D
:105670000C206946C88445480A90F268002A04D084
:1056800008A9B0789047002883D1D3F776DA0028AC
:10569000AAD102F0F9FC7CE723204DA10006FDF71A
:1056A000F8F93A483B49808841180B290AD2D3F7C8
:1056B00071DA002806D08178090603D40146022059
:1056C000D2F76EDD69460F70CF840A91052008A9D4
:1056D0000871F268002A03D0B0789047002887D17B
:1056E000002002F026FC54E71198032806D0364922
:1056F00001220346A8312448801E77E7617820788C
:10570000224C09024018224680B21432A080111F98
:1057100002F05BFC002161612069019100902A493F
:10572000A388032250311848D0F7BED9102069460B
:105730000875062048758F752069C875020A0A76B3
:10574000020C4A76000E88766069C876020A0A77EB
:10575000020C4A77000E88770B2012E7102069466A
:10576000087507204875119809283FD00346064858
:1057700001221D49801ED0F797D902206946FEE616
:1057800000005023740D800802311023B4952000CE
:10579000C80E800870D8FFFFFEFF00004446555F2A
:1057A0004F50434F44455F53544152545F44465514
:1057B0003A206466755F757064617465206661691E
:1057C0006C3D256400000000F40F80086003200099
:1057D0004446555F4F50434F44455F5359535445DA
:1057E0004D5F52455345540074118008FE48807E39
:1057F000002805D00022FD49FD48D0F755D927E003
:10580000A97868780902401880B203902979E8786D
:105810000902401884B2A97968790902401880B257
:105820000490297AE8790902401885B26000801E48
:1058300081B2039802914000801E80B201900095D1
:1058400022460020049B039905F030F9002803D07C
:1058500003206946887594E6E348E449877604980E
:105860000190E3480295009404224431801C039B7C
:10587000D0F71AD98DE6DC49DE481831109A05F0C8
:1058800049F80120C0020090D74CD849D848238B52
:105890000222DC31C01CD0F707D9102069460875F8
:1058A0000920487577708F750020C8750820087624
:1058B000208B4876000A8876072062E66178207897
:1058C0000902401885B2E178A0780902401884B234
:1058D000C7482B460222C849801C0094D0F7E4D860
:1058E000224629461098FFF72BFB52E60020694616
:1058F0000872102008750B20487502A9BF4802F0F5
:1059000043FB002803D002206946887501E0694600
:105910008F75087AC8750346B749B54801224031EA
:10592000801CD0F7C1D804202BE60346B249B0480A
:1059300001226C31C01C59E6F7B50F4686B06946A6
:10594000087303204873022048744F82089805901A
:10595000A5486C460546C268143D4069A98807C43D
:10596000A549A3483B460422A831801CD0F79CD807
:1059700068780124002823D0AB88E002D91981423D
:1059800014D9019003229E4900979948D0F78CD8EA
:105990000220694608724C8202A80590052008740E
:1059A00087E0002002F0C5FA09B0F0BD28693A4648
:1059B000C018089909F448F7A888C019A880F3E727
:1059C000AA88FF26F600D019B04219D923203B46F9
:1059D0008C4900060096FDF75CF8022069460871C4
:1059E000052008744C8201A80590EA68002A04D0BA
:1059F00003A9A87890470028D6D1002002F099FA90
:105A00007949AA884869D219CB688018984217D971
:105A10007B4901226C317648D0F746D8032069468D
:105A20000870052008744C820591EA68002A04D0A9
:105A300003A9A87890470028B6D1002002F079FA8F
:105A400071480078400704D508993A46084602F0A4
:105A500083FAA98828693A464018089909F4F4F6A7
:105A6000A888C01982B2AA80B24205D05E484169B6
:105A7000C0688918814297D1002600965A4F28782D
:105A80000C2358433B462033C018796980682B6942
:105A90000918B88802F04EFB020014D023205BA145
:105AA0000006FCF7F6FF69460E70052008744C826C
:105AB0000591EA68002A00D173E703A9A878904706
:105AC000002899D16DE7A8880090032069460874E2
:105AD000042048820591EA68002A04D003A9A87826
:105AE0009047002888D1A988786940187861AE80ED
:105AF0005AE7FFB583B0694603980D9F08700320ED
:105B000048704A710C98C880374E00240297154699
:105B10000C71143EF268002A03D0049890470400E8
:105B200017D1042D17D0022D1BD0354930482B46F4
:105B30000122D031801CCFF7B7DF3F4C01206946EE
:105B40000871F268002A03D004989047040000D13D
:105B5000204607B0F0BD3A460C990398FFF7B8FB12
:105B6000ECE73A460C990398FFF7E6FEE6E7FFB547
:105B700085B0012569464D7108711E460093204984
:105B80001B48174613462C460222FC31801CCFF7D7
:105B90008BDF052F0BD0002413481438C268002A6D
:105BA00004D0002C02D001A906989047FCE6F0072B
:105BB00003D0684645710572EEE769464D710220D3
:105BC0000872E9E77CB51D4905468A684868009077
:105BD000019205480B68A8221949123804F080FC8C
:105BE000014C143C00282DE0B4952000D010800812
:105BF0000031102375020000EC118008902700008E
:105C000004138008A4F28300000520004275666634
:105C1000657220636865636B2064697361626C659B
:105C20003A206466755F75706461746520666169A9
:105C30006C3D2564000000000A040000B4EB830002
:105C40004091200005D02046AC30E5602061A0786E
:105C50007CBDA378012203490348CFF725DFFF204D
:105C6000A0707CBD301480080031102310B5794C31
:105C7000A078002801D0032808D103F007F8A07805
:105C8000002801D0032801D1D3F513F003F05BF80D
:105C9000A078042801D103F0B5FD03F0EAF9012052
:105CA00004F089FB04F0BDFA01F03AF800F0AFF817
:105CB00069480021D7F788DD6949684808606A4962
:105CC00068480860D3F512F20224002008F439F184
:105CD0002046D7F73FDD01F0B1FB01F045FC10BDD8
:105CE00010B55C498878002801D0032809D1887A4A
:105CF000002804D10121C907080DD2F5EEF702F002
:105D000030FC03F0FBF904F0CBF910BDF8B501202D
:105D1000D2F70EDD554D012804D100225449284602
:105D2000CFF7C2DE5348006806F0CAF800F052FE12
:105D3000D2F566F502F0CDFD03F0BEF903F0ECFDFF
:105D40001620FDF727D9694608800878414C40099C
:105D5000A0701620FDF71ED9694608800878C00695
:105D6000C00E087009881620FDF766D90020DDF7FF
:105D700009D806460120DDF705D83D490090334695
:105D8000022220312846CFF78FDE3949A37801223D
:105D90006C312846CFF788DEDCF7EADE344903466B
:105DA000012280312846CFF77FDEDCF7E1DEC02814
:105DB00007D12F49002298312846CFF775DE012000
:105DC000A072A078002804D003280BD0042813D197
:105DD00016E027490022AC312846CFF765DE03F0F4
:105DE000C9FE07E022490022C8312846CFF75CDE11
:105DF00003F01EFEFFF73AFFDDF7E3D90020F8BD00
:105E00001B490022F4312846CFF74EDEF2E710B5E9
:105E1000062004F058FB1848FEF785FC0D4C203C8A
:105E2000A0711548FEF7C7FBE0711348FEF7A7FD08
:105E300020721148FEF734FE60720F48FFF747F8F2
:105E4000A0720D48FFF7BEFEE0720B4804F074FB31
:105E500010BD00006E9E2000D58120009981200099
:105E60006C932000BD81200070932000023010232D
:105E7000FC14800864932000FB6A830070B501461F
:105E8000FD48FE4C0B0008F03BF806250A130417EA
:105E90001F420022FA49CFF707DE052005E0F84946
:105EA00000222031CFF700DE032000F0E1FF36E0D2
:105EB000F34900223C310AE0F14900225831CFF782
:105EC000F3DD0620A0732AE0ED4900227831CFF7F8
:105ED000EBDD24E0EA49002298310546CFF7E4DD06
:105EE000607C01281BD1E649A3780122B431284601
:105EF000CFF7DADDA078032806D2012000F0B8FF42
:105F0000A078401CA07070BD0020A07007E0DC49A4
:105F1000D948A37C0122E031401ECFF7C5DD02F055
:105F2000CCFC70BD70B50146D348D44C0B0007F0D3
:105F3000E7FF0839050A390E283035390022D149E2
:105F4000CFF7B2DD19E0CF490022383123E0CD4947
:105F50002378012270310546CFF7A6DD207800288E
:105F60000ED1C84963790122AC312846CFF79CDDB8
:105F70006079032804D2401C6071032000F078FF90
:105F800070BDC0490022FC31CFF78EDD0620A07322
:105F900070BD0022BC49CFF787DD70BD012001F044
:105FA000C8FF70BDB849B448E37C01223C31401EB3
:105FB000CFF77ADD70BD10B50178002486B00229D4
:105FC00067D18178012910D0022916D003291DD06C
:105FD000042924D005292BD0062932D0072939D00D
:105FE00008293FD0092946D053E0A8A007C86B462E
:105FF00007C30A216A46002049E0A7A10FC90393FD
:106000006B4607C30D216A46012040E0A6A10FC9D7
:1060100003936B4607C30F216A46022037E0142220
:10602000A5A16846CAF740D911216A4603202EE08F
:106030001422A6A16846CAF737D911216A4604205E
:1060400025E01422A6A16846CAF72ED911216A4676
:1060500005201CE0A7A003C80191009008216A4612
:10606000062014E01422A5A16846CAF71DD9122102
:106070006A4607200BE0A6A003C801910090032008
:1060800069464871002088716A4607210820FEF79A
:106090008BF9204606B010BDF0B50446037885B0F4
:1060A000002501229C497448CFF7FEDC20780127A7
:1060B000012802D0032858D11AE02079012802D003
:1060C00002280ED051E09449002224316A48CFF7CB
:1060D000EBDC1020009069480197417A8F4B022237
:1060E00038E08D49002250316348CFF7DDDC3CE0D9
:1060F00020798B4E012802D0022815D034E0864941
:10610000002280315C48CFF7CFDC10228348E16861
:1061100009F49AF31021814804F0AAF8002824D148
:106120007D490022C0311BE003F0AAFC03F015FCFE
:10613000002813D078490022FC314F48CFF7B4DC57
:10614000002002900390082000904C480197017AAB
:1061500002AB0A22002004F028FA06E0714900226E
:106160004548401ECFF7A0DC3546284605B0F0BDB7
:10617000FEB5064601200D460091019000243346ED
:10618000022269493C48CFF78FDC002D05D0012D54
:1061900003D065490022403138E0384F387E01286D
:1061A0000DD00120B040398C012D13D0814308045B
:1061B0003984000C787F0FD0012816D01AE05A4994
:1061C000002274312C48CFF76FDC01207876BD7740
:1061D0003E77FEBD0143EAE7002802D0002001908F
:1061E00008E051490022AC3102E04F490022EC3175
:1061F00021480DE00020019904F027FC00280AD076
:10620000641CE4B2032CF5D3484900221A48401E0E
:10621000CFF74ADCFEBD45493B8C01226039164868
:10622000CFF742DC00207876012038767D77FE7645
:10623000FEBDF0B54178002485B001291BD00329AB
:1062400007D101793A4D022904D001297DD00029D6
:1062500073D0C9E04079042870D102F087FE02F0C3
:1062600047FF344988426BD22E49002284310248CC
:10627000CFF71ADCA6E0A7E0023010234E9E2000E4
:1062800014168008141780084C1880085265616C39
:1062900074656B20425400004D6F64656C204E6243
:1062A0007220302E3900000052544B426565536510
:1062B0007269616C4E756D0052544B426565486160
:1062C00072647761726552657600000052544B42E9
:1062D00065654669726D776172655265760000008A
:1062E00052544B426565536F6674776172655265AF
:1062F00076000000000102000003040552544B42E6
:10630000656549454545446174616C697374000075
:10631000015D0001000000003C1B80083895200052
:10632000C3040000701C800850258008DC2680080B
:10633000040D0000C409000007E024E01EE0FFE7B0
:1063400001210320FFF714FF4EE0417904294BD1CE
:1063500081680978032902D0042945D10FE0212161
:106360006A461180007801906846D2F588F00028CE
:106370003AD12320FBA10006FCF78BFB34E0072079
:1063800000F0E9FF30E00021029103910491806860
:10639000FB4F0678B87B042826D00022F949FA483A
:1063A000CFF782DB1020694608724E72092088728E
:1063B0000320012100900191F97A02AB0422002010
:1063C00004F0F3F82C460FE00079012802D00228EF
:1063D00004D009E0EB4900222C3102E0E949002217
:1063E0004831E948CFF760DB2046BFE6F3B585B01A
:1063F0006846047D0291E007C00F2707E149A5091F
:10640000BE0F03460390042200960195B031DE488A
:10641000CFF74ADBE00705D0B80F03D1A00901D1BF
:1064200001F0ADFAD648C07BC1070398C90F81427D
:106430004FD0E0074DD00022D449D348CFF734DB0A
:10644000DCF796DBD92804D103220221082002F0D0
:1064500097FC0020DCF796DC01900120DCF792DC51
:10646000C849009002226431C748019BCFF71CDB6A
:10647000FF230C21F5333122084604F0ECFEC0491D
:1064800000208873084620300090807A002801D1CF
:1064900002F06CFD04F054FC002815D000780028B0
:1064A00012D0B7490120087002F01FFE01280ED05B
:1064B0000098807A00280AD1022000F0D9FCB44963
:1064C000B448DDF7E7D802E0AD4900200870FFF7D7
:1064D00007FCAB48C07B0007800FB04235D0B80F37
:1064E00002D0022E28D030E00721082002F084FCE0
:1064F000A34E0027B773707C012802D0A548DDF7B2
:10650000DDD8A00711D4A149002214319E48CFF74D
:10651000CBDAB07CFFF7B2FCB7749F499F48DDF738
:10652000B9D89A490022483102E0984900228431C2
:106530009548CFF7B9DA08E094490022B43192487F
:10654000CFF7B2DA8E49012088738D48C07B83096A
:10655000AB4206D08D490222C8318B480095CFF757
:10656000A3DA8748801E447407B0F0BDF7B5844DA8
:106570008AB0287C0C46019100908449824F1646CF
:106580000322E03138460A9BCFF78EDA002C02D086
:10659000022C7DD136E00020A8738148DDF78ED82B
:1065A0007D497E48DDF776D800227E493846CFF710
:1065B0007BDA3046FF3814380ED03046FF381738B3
:1065C0001CD078497048334601227431401ECFF701
:1065D0006BDA0020E8745BE0724900223C313846F7
:1065E000CFF762DA28780028F3D168790328F0D24F
:1065F000401C6871032000F03BFCEAE7E87CFFF7F1
:1066000091FCE6E70320A87361496548DDF742D8AD
:106610006248DDF753D863490022B4313846CFF7DA
:1066200043DA57480A21183009F474F10121002097
:10663000FFF79EFDFB215C4A0A9804F0E7F906A9E2
:106640005A480A9A04F066F9584808A9401C0A9A60
:1066500004F060F99D2009A980000A9A04F05AF913
:1066600007AA04A90A9804F070F904A95048CFF7C2
:10667000B6DB03466846868C028C018B007F03964E
:106680006E4607C647490522EC313846CFF70CDA8B
:106690002C740DB0F0BDF8B53B4E15460C460346C4
:1066A000012244493046CFF7FFD9002C08D0012CF5
:1066B0000ED02346012240493046CFF7F5D9F8BD28
:1066C0003C49002230313046CFF7EED930490EE058
:1066D000002D0ED03948854201D104F09CFA36498C
:1066E00000222C393046CFF7DFD97D2109012C4813
:1066F0007BE0304900224C3135463046CFF7D4D9C3
:106700001F4C012020700420A07300206071E070F5
:106710002348DCF7D3DF08210522084602F030FBCE
:10672000607C274C012804D0022802D002F0C5F872
:1067300016E0244FFF26786A2D36012846D13946C7
:106740002431022002F016F900283FD01949002216
:106750007C312846CFF7A8D931461B48DCF79ADFB1
:10676000214641E04446552073656E642056616CB5
:106770006964204657206D7367206661696C21004B
:106780004E9E2000401D800802301023481E8008C5
:10679000102700007C9E2000B80B0000889E20007F
:1067A000849E2000741F80084808000072020000C8
:1067B00000003023E420800854228008EB0500000C
:1067C00088130000D09E2000C89E20007B6A002B0A
:1067D00008D00122FB492846CFF766D93146FA484E
:1067E000DCF758DF7D21C900F848DCF753DFF8BD3E
:1067F0007CB5F74DF74C0646002907D0012927D074
:10680000022924D10022F44928463DE00020F14924
:10681000E07032462431F14804F07CF8ED49EF484D
:1068200032462631401C04F075F8EA499D20324674
:106830002831800004F06EF8218DE08C01910090E9
:10684000E049A38C0322CC312846CFF72DD97CBD5B
:10685000E149DF4813460122C039801ECFF724D911
:10686000DB48E178401E03290BD2491CE170DA496C
:1068700000228C39CFF718D9D949D448DCF70ADF80
:106880007CBDD54900224839CFF70ED97CBD70B503
:1068900086B04568009504464388CF49CC4801221C
:1068A0002831401CCFF700D961880020C84C0B006C
:1068B00007F026FB0B89070E6F7615284959361C01
:1068C0008900684641882846FFF790FD06B070BDF4
:1068D0006846428841780078FFF748FEF6E7684648
:1068E000428841780078FFF7D6FEEFE768460078E7
:1068F000012104F059F9B84900224C312046CFF764
:10690000D3D8E3E701906846007801A904F028F99C
:10691000B14901226C31019B53E0CFF7C5D8D5E7CF
:1069200001906846057801A9284604F019F9AA499A
:1069300001229C312046019BCFF7B6D80121284681
:1069400004F048F9C2E768460578A349A54E2B46EE
:106950000122D0312046CFF7A7D801223146284660
:1069600004F009F9B2E701900290039004906846A0
:10697000057800229C492046CFF796D8212001AA0D
:106980001021000104F0C9F80121284604F001F9A2
:106990009CE76846428841780078FFF729FF95E731
:1069A000694608718D480A7801A9C01C03F0B2FF3E
:1069B00069460B79172B89D386488B4901220371CD
:1069C00020312046A9E70B468749814801225431EE
:1069D000801EA2E710B52C217E4808F49BF77D4964
:1069E000172008717B4800212030817210BDFEB550
:1069F0000026774D0C46012828D0122831D01428C3
:106A000009D0202813D00346012278492846CFF721
:106A10004BD83046FEBD08688288418801920091BB
:106A20000378032272492846CFF73ED8F1E7206861
:106A30006F490378012254312846CFF735D82068B2
:106A400001224168007801F0B3F8E2E70868022209
:106A5000418800916649037880312846CFF724D8D1
:106A6000D7E72068624903880122BC312F462846B7
:106A7000CFF71AD8574D00202876216809880029B9
:106A800011D0A87E05281BD25849514800225839F8
:106A9000401ECFF709D8A87E401CA876697FE87E03
:106AA000FFF766FBB5E7A876687E0128B1D14F49AC
:106AB000002294393846CEF7F7DFA97F287FEFE729
:106AC0004A49434800222C39801ECEF7EDDFA0E76B
:106AD00013B546490446034601222C313C48CEF703
:106AE000E3DF3C4968460079891E002C03D0012C65
:106AF00000D148701CBD08701CBD38B50024FF28AB
:106B000009D0344A937983422CD14878012806D0A1
:106B100002284AD113E0084600F049F845E0897898
:106B20002B48012902D0022903D03EE0002231493E
:106B300002E0304900223831CEF7B6DF35E064207C
:106B40006946087002F012FA002806D02A4C01218A
:106B50006A460846FDF75EFD27E002F0CCFA69467A
:106B60000870F4E7D379834203D10846FFF723FA8C
:106B70001AE0137A834203D1084600F065F813E067
:106B8000537A834203D10846FFF786FA0CE0937AE2
:106B9000834203D1084600F08AF805E0D27A8242A7
:106BA00003D10846FFF745FB0446204638BD7FB5B4
:106BB000044600780025064E00281FD001283BD14E
:106BC00023E00000C4218008C89E2000809E200091
:106BD000023010234E9E2000CC2380087202000059
:106BE0008813000038900D00CC248008DC28800831
:106BF0005C278008A8198008C3040000A37801223C
:106C000042493046CEF750DF16E06388E28861796A
:106C1000208903936B4607C33C49237905222C3115
:106C20003046CEF741DF2089002808D037490022BE
:106C3000C0313748CEF738DF284604B070BD33493D
:106C4000002294313046F5E770B5314E04460378A2
:106C5000B61C002501222F493046CEF725DF2078CB
:106C6000012802D0032820D119E02079012806D07C
:106C7000022808D005280AD0062816D10BE025499D
:106C8000002220310EE02349002254310AE021493C
:106C90000022883106E01F490022C03102E01D4970
:106CA0000022F8313046CEF7FFDE284670BD7FB5B2
:106CB00001780024032927D18178012924D00229D1
:106CC00022D1134D0379AD1C012213492846CEF77A
:106CD000EBDE02F0D5FE002816D00F49002230313D
:106CE0002846CEF7E1DE002002900390FF2069469F
:106CF000887208200090012108480191017A02ABB6
:106D00000A22002003F051FC204696E7BC188008B8
:106D100000301023181A8008A81C80084E9E2000FE
:106D200000B59DB01C2112A808F4F6F5FA480FAB87
:106D300007C807C3FF2081306A4610870020107003
:106D40001071199007211A901172FF2110734131AF
:106D50001185918501211174118603231375107615
:106D6000107708AA1B9010706A46918608AA1171C4
:106D700009AAEA4803F041FBE94803F035FB012189
:106D8000E84800F0EAFEE5480FAA2821401E03F07B
:106D900034FBE2480EAA0221801E03F02EFBDF48DE
:106DA0006A460121403003F035FD992001AA0121F6
:106DB000800003F02FFDD94819AA0621423003F0C4
:106DC00029FDD64802AA0121433003F023FDD34810
:106DD00003AA0121443003F01DFD4D200AAA02211F
:106DE000C00003F017FDCD480BAA0221463003F086
:106DF00011FDCA48CC4A1D213E3003F00BFDCA4AA2
:106E0000C648121F04213F3003F004FDC34804AA02
:106E10000121213803F07BFAC0480CAA0221203856
:106E200003F075FA812005AA0121800003F06FFAB2
:106E3000BA4806AA01211E3803F069FAB7481BAA0E
:106E40000421123803F069FEB44807AA0121113861
:106E500003F063FEB14808AA0121103803F05DFE7B
:106E600085200DAA0221800003F057FE1DB000BD51
:106E7000F1B586B0002503F063FFAC4E0446B37B4A
:106E8000002B07D00122AA49AA48CEF70DDE002028
:106E900007B0F0BD06980127030007F031F806FDA2
:106EA0000463FCFBC1FD69460F74002008710720D4
:106EB00008709A4804AA0121403003F0ABFC9748BF
:106EC00001AA0121443003F0A5FC94486A4601213F
:106ED000433003F09FFC607BA17B80098001012986
:106EE00001D1402810D09249924800226031401CC4
:106EF000CEF7DADD224699200E320121800003F020
:106F000089FC2246083216E089498A480022343139
:106F1000401CCEF7C9DD88480078002802D1012046
:106F200000F074FE2246992016320121800003F001
:106F300071FC2246103279480621423003F06AFC87
:106F400003F081FC002803D079490022B831BEE16A
:106F50007749784800229031401CCEF7A5DDB77301
:106F60007774C6E1607BA17B8009800101290FD184
:106F700040280DD16E496F480022DC31401CCEF70D
:106F800093DD6D480078002802D1012000F03EFE1C
:106F9000002069460874072008700320087120202B
:106FA000088188815D4804AA0121403003F032FC49
:106FB0005A486A460121433003F02CFC574801AA85
:106FC0000121443003F026FC4D2002AA0221C0001A
:106FD00003F020FC514803AA0221463003F01AFCBA
:106FE0004E48514A1D213E3003F014FC4E4A4B4896
:106FF000121F04213F3003F00DFC03F024FC002895
:1070000002D000224D4962E14C494A480022303901
:10701000401CCEF749DDB77302207074484965E122
:10702000464900222C314748CEF73EDD0020694614
:107030000874072008700320087120200881302080
:107040008881607BA17B80098001012901D14028D2
:1070500048D03A49374800228431401CCEF724DD1D
:10706000314900203A3122180B18127A401CDA7488
:107070000628F8DB294804AA0121403003F0CAFBA6
:1070800026486A460121433003F0C4FB01AA0121CE
:10709000224802E0C5E061E02DE1443003F0BAFB94
:1070A0004D2002AA0221C00003F0B4FB1B4803AA32
:1070B0000221463003F0AEFB1B4A18483A32192130
:1070C0003E3003F0A7FB184A1448121F04213F303A
:1070D00003F0A0FB03F0B7FB002835D017490022CE
:1070E000E031F4E01549134800225831401CCEF736
:1070F000DBDC11480078002802D1012000F086FD79
:10710000094900203A3122180B18127C401CDA740D
:107110000628F8DBAEE70000C0EB83002302000086
:10712000EF698300D16A8300EC9120004E9E20001D
:107130002C298008013010234D9E2000642A8008ED
:10714000B80B0000023310230022AE49AE48CEF740
:10715000ABDCB77305207074AC49C7E0A9490022C5
:107160005431AB48CEF7A0DC3078002803D00020A3
:10717000307003F050FDA7480078032802D10020AA
:1071800000F044FD00206A46107407211170107150
:10719000202010813020908104AA01219E4803F014
:1071A00039FB9D486A460121C01C03F033FB9A4815
:1071B00001AA0121001D03F02DFB4D2002AA02218E
:1071C000C00003F027FB944803AA0221801D03F0AE
:1071D00021FB9148914A1D21801E03F01BFB8F4A21
:1071E0008D48121F0421401E03F014FB03F02BFBFB
:1071F000002803D083490022A83168E08149002299
:107200007C318148CEF750DCB77303207074844919
:107210008448DCF73FDA00220721082001F0B0FDA6
:1072200067E078490022D0317948CEF73DDC607BB9
:10723000A17B8009800101290ED140280CD1714920
:107240000022F4317048CEF72FDC72480078002815
:1072500002D1012000F0DAFC03206A4610740721F5
:1072600011701071202010813020908104AA01211A
:10727000694803F0CFFA68486A460121C01C03F050
:10728000C9FA654801AA0121001D03F0C3FA4D2087
:1072900002AA0221C00003F0BDFA5F4803AA02213E
:1072A000801D03F0B7FA5D4A5B481D321D21801E28
:1072B00003F0B0FA594A5848121F0421401E03F047
:1072C000A9FA03F0C0FA002806D0574900224E4818
:1072D000401ECEF7E9DB16E0534900222C394A481C
:1072E000CEF7E2DBB7730420504970744D48DCF7E9
:1072F000D1D9012507E003464B49434801222831F3
:10730000401ECEF7D1DB2846C2E570B5484D3E4E53
:10731000A874AB7B0024761E012B07D042490122C2
:10732000B8313046CEF7C0DB204670BD03F094FA8A
:10733000002806D03C49002288313046CEF7B4DB25
:10734000F2E73949002250312F48CEF7ADDB022059
:10735000A8730124E8E770B5014635482A4DC17489
:10736000837B00246D1E032B08D0042B06D0012242
:1073700030492846CEF798DB204670BD002003F048
:1073800012FB002806D02B4900223C392846CEF7B4
:107390008BDBF1E72749002280391B48CEF784DBDD
:1073A0000124E9E73EB50D4604460A21104604F0E3
:1073B000A5FD01466000801E80B20190224600912A
:1073C00002902B461146002003F070FB002811D0DC
:1073D00017490D4BC8785B1E03280CD2401CC8709F
:1073E0001449002238311846CEF75EDB0F491248A7
:1073F000DCF750D93EBD0F4900226C311846CEF75C
:1074000053DB3EBD182B800802301023E02E000015
:10741000023310234D9E200063020000EC912000F7
:10742000307500007C9E2000642C800888130000CA
:107430004E9E2000C82D8008809E20007CB52C48E0
:10744000002401902B4B01222BA100942D48DCF746
:10745000F1D82D4D002804D100222C492846CEF722
:1074600023DB2B48019027487D231B01012229A102
:1074700000940830DCF7DED8002805D1234900222B
:107480002C312846CEF710DB284801901D48284BA8
:10749000012228A10094001DDCF7CCD8002805D1DA
:1074A0001A49002264312846CEF7FEDA28480094B3
:1074B0000190284C13482346012227A10C30DCF709
:1074C000B9D800280FD00F4821460C30DCF7E2D89D
:1074D0000E490022CC312846CEF7E6DA01F05CF8FE
:1074E00001F004FA7CBD094900229C31F3E7000059
:1074F00015832000307500006164765F74696D65E6
:10750000720000007C9E200002301023702F800843
:1075100035832000706169725F6661696C5F6469C0
:1075200073636F6E6E5F74696D65720051832000C6
:10753000881300007570646174655F636F6E6E5FC1
:10754000706172616D735F74696D65720000000037
:107550007F832000B80B0000656E7465725F6473F2
:10756000735F74696D6572001CB50121C8020191D9
:1075700000900023024A03A10348DBF775DF1CBD1E
:1075800005842000617070008C9E200030B50122BF
:1075900091B013491004FCF7DBF803A8FCF7D5FA07
:1075A00000206A46D0820F4806900F4C0125958234
:1075B00003A92046FCF75CFA08216A4611700320F3
:1075C000019015726846FCF75FF8E06801212046DB
:1075D000FCF7D4FA01212046FCF7C4FA11B030BD03
:1075E00000400020FFB3C40464200040FE4982B084
:1075F0008A78824209D088708A68002A05D0694654
:1076000008700099002002B0104702B07047FFB523
:1076100081B00C46064603F0FFFBF54F05463346A6
:107620000122F2493846CEF73FDA3000EE4E12D052
:10763000F04A012812D002285FD110460399CEF7F4
:10764000CEDBEA4903460222E03138460094CEF709
:107650002BDA002767E0012030704BE010460399D9
:10766000CEF7BDDBE14903460222343138460094AF
:10767000CEF71ADA002713E038460B214843F168A9
:107680000A5C002A0AD040180179A14206D10622DC
:10769000401D039908F488F0002806D07F1CFFB233
:1076A000AF42E9D30027F0680AE0D04900227031E8
:1076B0003DE00B217943415C002907D07F1CFFB2DC
:1076C000AF42F6D3C9490022A43130E00B21012595
:1076D0004F43C55538180471F06806223818401D0C
:1076E000039908F4B1F0F06838188570F1680498CF
:1076F0007918C8700220FFF779FF05B0F0BD384651
:107700000B214843F1680A5C002A0AD0401801792D
:10771000A14206D10622401D039908F445F0002835
:107720000AD07F1CFFB2AF42E9D3B3490022B04870
:10773000801ECEF7B9D9E0E70B204743F068381830
:107740004178002905D0022181700846FFF74EFFDD
:10775000EBE70B2108F4DEF0A74900223439A448F6
:10776000CEF7A2D9E1E738B5040032D0207800285E
:107770002FD001256946204603F039FB002808D0A8
:1077800068460078002804D068468078002800D039
:107790000025A17B002911D0012903D1607B80093C
:1077A00003280BD0A07800070CD5A17D22462B46DC
:1077B00010320120FFF72BFF012038BD22462B4657
:1077C0000832F6E78A48637801228C49801ECEF79A
:1077D0006BD9002038BDFEB50220029003F01CFBDF
:1077E000814E07467078002804D084490022583121
:1077F0007F48A8E0307800281FD0804900227031EF
:107800007B48CEF751D900221146104603F098FB71
:10781000030007D07949764801228431801ECEF7D3
:1078200043D9A3E03079002804D000221146104645
:1078300002F0FCFD0120707098E0002535E02C4638
:107840000B204443F068015D00292CD02118887872
:10785000002828D00128674831D0491DCEF7BFDA6B
:10786000F1682B466118097901910090032264495F
:107870005F48CEF719D9F0682018421D017902201F
:1078800003F05EFB030061D0022B72D05C49022240
:107890002C3100955648801ECEF706D9F0680B2192
:1078A000201808F437F06D1CEDB2BD42C7D34F4924
:1078B00000226C394E48CEF7F7D80120FEBD491D95
:1078C000CEF78DDAF1682B466118097901914C49A0
:1078D0000090032290394648CEF7E6D8F068201889
:1078E000421D0179012003F02BFB030006D0022B7F
:1078F00025D04349022268390095CBE70120414F4A
:1079000070703D700B214D43F168691848703079F3
:10791000002806D0F06821180A790120491D02F0DC
:1079200085FDF0682318D87800281FD078780028C3
:107930001CD0591D1879012203F010FB16E03049C4
:107940000022283918E0CEF7AFD80FE00120707080
:107950002C4805703079002808D00B204543F0688A
:1079600029180A790220491D02F060FD0298FEBD27
:10797000FFE72349002270311D48801EE3E738B538
:1079800011206946400102F046FD174CE0780028BE
:1079900006D0684600780107890F05D1800903D118
:1079A000FFF719FFFFF722FEA07838BDF8B50446AF
:1079B00003F032FA0546608800900F4923780222CE
:1079C00084310B48CEF770D8074A00215170608887
:1079D000FF270C4E002825D0C11FFB3918D00146C7
:1079E000FF39083914D00FE0989E20001C3380081E
:1079F000023010230000302370348008DC3080080F
:107A0000143280083F9220000146FF39133907D114
:107A100030780B214843D16840180B2107F47AF7DE
:107A20003770F8BD207800280FD00128307814D0A6
:107A3000A84207D20B214843D16840180B2107F414
:107A400069F73770FFF79BFFF8BD117029460B20CF
:107A50004143D06807F45EF7F4E7A842F2D20B2462
:107A60006043D46802230019437030780B23D26836
:107A7000584380188170E4E711B581B068460479F5
:107A80000122234693499448CEF70ED89348C470F8
:107A90008268002A04D0684604700120009990474B
:107AA0001CBDF8B50C468B498B4F05460346002696
:107AB0000122A8313846CDF7F7DF2846874D03006D
:107AC00006F01EFA060420082F3C0C492046FFF75A
:107AD000D3FF40E02046FFF769FF3CE07D49238863
:107AE0000122D8313846CDF7DFDF7D4840780028C5
:107AF00031D1AA68002A2ED0208869460880052046
:107B0000009927E02388012276493846CDF7CCDF5B
:107B1000AA68002A1FD0208869460880042000999E
:107B200018E07049238801224C313846CDF7BCDF7C
:107B3000AA68002A0FD0214602200BE06949238859
:107B4000012290313846CDF7AFDFAA68002A02D073
:107B50002146032090473046F8BD70B50C460646D6
:107B600003F05AF90546234601225F495A48CDF7EA
:107B70009BDF0B20294641437E235C4A0020DBF734
:107B800084D8014655488660C1600471584803F0A6
:107B9000A2F90120FFF72AFD002406E0204603F0A9
:107BA000B5F8FFF7E0FD641CE4B2AC42F6D370BD5B
:107BB00070B516460C460546034601224D49464817
:107BC000CDF772DF022D04D0002D07D0012D15D086
:107BD00019E000231A46194618460CE0A078000761
:107BE00004D500232246A17D103203E0A17B0023AF
:107BF000224608320220FFF70AFD04E0002E02D0E0
:107C00002046FFF7B0FDFFF7BAFE70BD10B503F0D8
:107C100069F910BD3EB50C46054603F0ADF969465D
:107C20000872012D06D102AA204603F09CF8002814
:107C300000D06C4668462146007A03F063F93EBDE9
:107C40003EB50C46054603F097F969460872012DCA
:107C500006D102AA204603F086F8002800D06C4620
:107C600068462146007A03F057F93EBD1C4948702A
:107C70007047FEB516460C460746002503F07CF912
:107C800069460872012F06D102AA204603F06BF85C
:107C9000002800D06C46002E00D0012568462A46F8
:107CA0002146007A03F05AF961E601B582B011204D
:107CB0006946400102F0AFFB032002AA0221000244
